{"abi":[{"type":"constructor","inputs":[{"name":"_underlyingToken","type":"address","internalType":"contract IERC20"},{"name":"_name","type":"string","internalType":"string"},{"name":"_symbol","type":"string","internalType":"string"}],"stateMutability":"nonpayable"},{"type":"function","name":"allowance","inputs":[{"name":"owner","type":"address","internalType":"address"},{"name":"spender","type":"address","internalType":"address"}],"outputs":[{"name":"","type":"uint256","internalType":"uint256"}],"stateMutability":"view"},{"type":"function","name":"approve","inputs":[{"name":"spender","type":"address","internalType":"address"},{"name":"value","type":"uint256","internalType":"uint256"}],"outputs":[{"name":"","type":"bool","internalType":"bool"}],"stateMutability":"nonpayable"},{"type":"function","name":"balanceOf","inputs":[{"name":"account","type":"address","internalType":"address"}],"outputs":[{"name":"","type":"uint256","internalType":"uint256"}],"stateMutability":"view"},{"type":"function","name":"decimals","inputs":[],"outputs":[{"name":"","type":"uint8","internalType":"uint8"}],"stateMutability":"view"},{"type":"function","name":"deposit","inputs":[{"name":"amount","type":"uint256","internalType":"uint256"}],"outputs":[{"name":"shares","type":"uint256","internalType":"uint256"}],"stateMutability":"nonpayable"},{"type":"function","name":"exchangeRate","inputs":[],"outputs":[{"name":"rate","type":"uint256","internalType":"uint256"}],"stateMutability":"view"},{"type":"function","name":"getOwnershipPercentage","inputs":[{"name":"account","type":"address","internalType":"address"}],"outputs":[{"name":"percentage","type":"uint256","internalType":"uint256"}],"stateMutability":"view"},{"type":"function","name":"name","inputs":[],"outputs":[{"name":"","type":"string","internalType":"string"}],"stateMutability":"view"},{"type":"function","name":"owner","inputs":[],"outputs":[{"name":"","type":"address","internalType":"address"}],"stateMutability":"view"},{"type":"function","name":"renounceOwnership","inputs":[],"outputs":[],"stateMutability":"nonpayable"},{"type":"function","name":"sellBlocked","inputs":[{"name":"","type":"address","internalType":"address"}],"outputs":[{"name":"","type":"bool","internalType":"bool"}],"stateMutability":"view"},{"type":"function","name":"setSellBlocked","inputs":[{"name":"account","type":"address","internalType":"address"},{"name":"blocked","type":"bool","internalType":"bool"}],"outputs":[],"stateMutability":"nonpayable"},{"type":"function","name":"symbol","inputs":[],"outputs":[{"name":"","type":"string","internalType":"string"}],"stateMutability":"view"},{"type":"function","name":"totalSupply","inputs":[],"outputs":[{"name":"","type":"uint256","internalType":"uint256"}],"stateMutability":"view"},{"type":"function","name":"totalUnderlyingBacked","inputs":[],"outputs":[{"name":"","type":"uint256","internalType":"uint256"}],"stateMutability":"view"},{"type":"function","name":"transfer","inputs":[{"name":"to","type":"address","internalType":"address"},{"name":"value","type":"uint256","internalType":"uint256"}],"outputs":[{"name":"","type":"bool","internalType":"bool"}],"stateMutability":"nonpayable"},{"type":"function","name":"transferFrom","inputs":[{"name":"from","type":"address","internalType":"address"},{"name":"to","type":"address","internalType":"address"},{"name":"value","type":"uint256","internalType":"uint256"}],"outputs":[{"name":"","type":"bool","internalType":"bool"}],"stateMutability":"nonpayable"},{"type":"function","name":"transferOwnership","inputs":[{"name":"newOwner","type":"address","internalType":"address"}],"outputs":[],"stateMutability":"nonpayable"},{"type":"function","name":"underlyingToken","inputs":[],"outputs":[{"name":"","type":"address","internalType":"contract IERC20"}],"stateMutability":"view"},{"type":"function","name":"withdraw","inputs":[{"name":"shares","type":"uint256","internalType":"uint256"}],"outputs":[{"name":"amount","type":"uint256","internalType":"uint256"}],"stateMutability":"nonpayable"},{"type":"event","name":"Approval","inputs":[{"name":"owner","type":"address","indexed":true,"internalType":"address"},{"name":"spender","type":"address","indexed":true,"internalType":"address"},{"name":"value","type":"uint256","indexed":false,"internalType":"uint256"}],"anonymous":false},{"type":"event","name":"OwnershipTransferred","inputs":[{"name":"previousOwner","type":"address","indexed":true,"internalType":"address"},{"name":"newOwner","type":"address","indexed":true,"internalType":"address"}],"anonymous":false},{"type":"event","name":"SellBlocked","inputs":[{"name":"account","type":"address","indexed":true,"internalType":"address"},{"name":"blocked","type":"bool","indexed":false,"internalType":"bool"}],"anonymous":false},{"type":"event","name":"Transfer","inputs":[{"name":"from","type":"address","indexed":true,"internalType":"address"},{"name":"to","type":"address","indexed":true,"internalType":"address"},{"name":"value","type":"uint256","indexed":false,"internalType":"uint256"}],"anonymous":false},{"type":"event","name":"UnderlyingDeposited","inputs":[{"name":"depositor","type":"address","indexed":true,"internalType":"address"},{"name":"amount","type":"uint256","indexed":false,"internalType":"uint256"},{"name":"sharesIssued","type":"uint256","indexed":false,"internalType":"uint256"}],"anonymous":false},{"type":"event","name":"UnderlyingWithdrawn","inputs":[{"name":"withdrawer","type":"address","indexed":true,"internalType":"address"},{"name":"amount","type":"uint256","indexed":false,"internalType":"uint256"},{"name":"sharesBurned","type":"uint256","indexed":false,"internalType":"uint256"}],"anonymous":false},{"type":"error","name":"ERC20InsufficientAllowance","inputs":[{"name":"spender","type":"address","internalType":"address"},{"name":"allowance","type":"uint256","internalType":"uint256"},{"name":"needed","type":"uint256","internalType":"uint256"}]},{"type":"error","name":"ERC20InsufficientBalance","inputs":[{"name":"sender","type":"address","internalType":"address"},{"name":"balance","type":"uint256","internalType":"uint256"},{"name":"needed","type":"uint256","internalType":"uint256"}]},{"type":"error","name":"ERC20InvalidApprover","inputs":[{"name":"approver","type":"address","internalType":"address"}]},{"type":"error","name":"ERC20InvalidReceiver","inputs":[{"name":"receiver","type":"address","internalType":"address"}]},{"type":"error","name":"ERC20InvalidSender","inputs":[{"name":"sender","type":"address","internalType":"address"}]},{"type":"error","name":"ERC20InvalidSpender","inputs":[{"name":"spender","type":"address","internalType":"address"}]},{"type":"error","name":"OwnableInvalidOwner","inputs":[{"name":"owner","type":"address","internalType":"address"}]},{"type":"error","name":"OwnableUnauthorizedAccount","inputs":[{"name":"account","type":"address","internalType":"address"}]},{"type":"error","name":"ReentrancyGuardReentrantCall","inputs":[]}],"bytecode":{"object":"0x60a060405234801561000f575f5ffd5b506040516125df3803806125df83398181016040528101906100319190610395565b3382828160039081610043919061062d565b508060049081610053919061062d565b5050505f73ffffffffffffffffffffffffffffffffffffffff168173ffffffffffffffffffffffffffffffffffffffff16036100c6575f6040517f1e4fbdf70000000000000000000000000000000000000000000000000000000081526004016100bd919061070b565b60405180910390fd5b6100d58161011a60201b60201c565b5060016006819055508273ffffffffffffffffffffffffffffffffffffffff1660808173ffffffffffffffffffffffffffffffffffffffff1681525050505050610724565b5f60055f9054906101000a900473ffffffffffffffffffffffffffffffffffffffff1690508160055f6101000a81548173ffffffffffffffffffffffffffffffffffffffff021916908373ffffffffffffffffffffffffffffffffffffffff1602179055508173ffffffffffffffffffffffffffffffffffffffff168173ffffffffffffffffffffffffffffffffffffffff167f8be0079c531659141344cd1fd0a4f28419497f9722a3daafe3b4186f6b6457e060405160405180910390a35050565b5f604051905090565b5f5ffd5b5f5ffd5b5f73ffffffffffffffffffffffffffffffffffffffff82169050919050565b5f610217826101ee565b9050919050565b5f6102288261020d565b9050919050565b6102388161021e565b8114610242575f5ffd5b50565b5f815190506102538161022f565b92915050565b5f5ffd5b5f5ffd5b5f601f19601f8301169050919050565b7f4e487b71000000000000000000000000000000000000000000000000000000005f52604160045260245ffd5b6102a782610261565b810181811067ffffffffffffffff821117156102c6576102c5610271565b5b80604052505050565b5f6102d86101dd565b90506102e4828261029e565b919050565b5f67ffffffffffffffff82111561030357610302610271565b5b61030c82610261565b9050602081019050919050565b8281835e5f83830152505050565b5f610339610334846102e9565b6102cf565b9050828152602081018484840111156103555761035461025d565b5b610360848285610319565b509392505050565b5f82601f83011261037c5761037b610259565b5b815161038c848260208601610327565b91505092915050565b5f5f5f606084860312156103ac576103ab6101e6565b5b5f6103b986828701610245565b935050602084015167ffffffffffffffff8111156103da576103d96101ea565b5b6103e686828701610368565b925050604084015167ffffffffffffffff811115610407576104066101ea565b5b61041386828701610368565b9150509250925092565b5f81519050919050565b7f4e487b71000000000000000000000000000000000000000000000000000000005f52602260045260245ffd5b5f600282049050600182168061046b57607f821691505b60208210810361047e5761047d610427565b5b50919050565b5f819050815f5260205f209050919050565b5f6020601f8301049050919050565b5f82821b905092915050565b5f600883026104e07fffffffffffffffffffffffffffffffffffffffffffffffffffffffffffffffff826104a5565b6104ea86836104a5565b95508019841693508086168417925050509392505050565b5f819050919050565b5f819050919050565b5f61052e61052961052484610502565b61050b565b610502565b9050919050565b5f819050919050565b61054783610514565b61055b61055382610535565b8484546104b1565b825550505050565b5f5f905090565b610572610563565b61057d81848461053e565b505050565b5b818110156105a0576105955f8261056a565b600181019050610583565b5050565b601f8211156105e5576105b681610484565b6105bf84610496565b810160208510156105ce578190505b6105e26105da85610496565b830182610582565b50505b505050565b5f82821c905092915050565b5f6106055f19846008026105ea565b1980831691505092915050565b5f61061d83836105f6565b9150826002028217905092915050565b6106368261041d565b67ffffffffffffffff81111561064f5761064e610271565b5b6106598254610454565b6106648282856105a4565b5f60209050601f831160018114610695575f8415610683578287015190505b61068d8582610612565b8655506106f4565b601f1984166106a386610484565b5f5b828110156106ca578489015182556001820191506020850194506020810190506106a5565b868310156106e757848901516106e3601f8916826105f6565b8355505b6001600288020188555050505b505050505050565b6107058161020d565b82525050565b5f60208201905061071e5f8301846106fc565b92915050565b608051611e9561074a5f395f8181610518015281816106a00152610aa50152611e955ff3fe608060405234801561000f575f5ffd5b506004361061012a575f3560e01c806370a08231116100ab578063a2931fe81161006f578063a2931fe814610334578063a9059cbb14610364578063b6b55f2514610394578063dd62ed3e146103c4578063f2fde38b146103f45761012a565b806370a08231146102a0578063715018a6146102d05780638566a203146102da5780638da5cb5b146102f857806395d89b41146103165761012a565b80632495a599116100f25780632495a599146101fa5780632e1a7d4d14610218578063313ce567146102485780633ba0b9a91461026657806360c36b25146102845761012a565b806306fdde031461012e578063095ea7b31461014c5780630f800e041461017c57806318160ddd146101ac57806323b872dd146101ca575b5f5ffd5b610136610410565b6040516101439190611620565b60405180910390f35b610166600480360381019061016191906116d1565b6104a0565b6040516101739190611729565b60405180910390f35b61019660048036038101906101919190611742565b6104c2565b6040516101a39190611729565b60405180910390f35b6101b46104df565b6040516101c1919061177c565b60405180910390f35b6101e460048036038101906101df9190611795565b6104e8565b6040516101f19190611729565b60405180910390f35b610202610516565b60405161020f9190611840565b60405180910390f35b610232600480360381019061022d9190611859565b61053a565b60405161023f919061177c565b60405180910390f35b610250610797565b60405161025d919061189f565b60405180910390f35b61026e61079f565b60405161027b919061177c565b60405180910390f35b61029e600480360381019061029991906118e2565b6107ec565b005b6102ba60048036038101906102b59190611742565b61089a565b6040516102c7919061177c565b60405180910390f35b6102d86108df565b005b6102e26108f2565b6040516102ef919061177c565b60405180910390f35b6103006108f8565b60405161030d919061192f565b60405180910390f35b61031e610920565b60405161032b9190611620565b60405180910390f35b61034e60048036038101906103499190611742565b6109b0565b60405161035b919061177c565b60405180910390f35b61037e600480360381019061037991906116d1565b6109fd565b60405161038b9190611729565b60405180910390f35b6103ae60048036038101906103a99190611859565b610a1f565b6040516103bb919061177c565b60405180910390f35b6103de60048036038101906103d99190611948565b610bc0565b6040516103eb919061177c565b60405180910390f35b61040e60048036038101906104099190611742565b610c42565b005b60606003805461041f906119b3565b80601f016020809104026020016040519081016040528092919081815260200182805461044b906119b3565b80156104965780601f1061046d57610100808354040283529160200191610496565b820191905f5260205f20905b81548152906001019060200180831161047957829003601f168201915b5050505050905090565b5f5f6104aa610cc6565b90506104b7818585610ccd565b600191505092915050565b6007602052805f5260405f205f915054906101000a900460ff1681565b5f600254905090565b5f5f6104f2610cc6565b90506104ff858285610cdf565b61050a858585610d72565b60019150509392505050565b7f000000000000000000000000000000000000000000000000000000000000000081565b5f610543610e62565b5f8211610585576040517f08c379a000000000000000000000000000000000000000000000000000000000815260040161057c90611a2d565b60405180910390fd5b8161058f3361089a565b10156105d0576040517f08c379a00000000000000000000000000000000000000000000000000000000081526004016105c790611a95565b60405180910390fd5b60075f3373ffffffffffffffffffffffffffffffffffffffff1673ffffffffffffffffffffffffffffffffffffffff1681526020019081526020015f205f9054906101000a900460ff161561065a576040517f08c379a000000000000000000000000000000000000000000000000000000000815260040161065190611b23565b60405180910390fd5b6106626104df565b600854836106709190611b6e565b61067a9190611bdc565b90506106863383610ea8565b8060085f8282546106979190611c0c565b925050819055507f000000000000000000000000000000000000000000000000000000000000000073ffffffffffffffffffffffffffffffffffffffff1663a9059cbb33836040518363ffffffff1660e01b81526004016106f9929190611c3f565b6020604051808303815f875af1158015610715573d5f5f3e3d5ffd5b505050506040513d601f19601f820116820180604052508101906107399190611c7a565b503373ffffffffffffffffffffffffffffffffffffffff167fd6131a00093c585257b845642da71f19959bed481deed79c4ca526ca938670128284604051610782929190611ca5565b60405180910390a2610792610f27565b919050565b5f6012905090565b5f5f6107a96104df565b036107be57670de0b6b3a764000090506107e9565b6107c66104df565b670de0b6b3a76400006008546107dc9190611b6e565b6107e69190611bdc565b90505b90565b6107f4610f31565b8060075f8473ffffffffffffffffffffffffffffffffffffffff1673ffffffffffffffffffffffffffffffffffffffff1681526020019081526020015f205f6101000a81548160ff0219169083151502179055508173ffffffffffffffffffffffffffffffffffffffff167fe31aaedb2c97dd6af8c957184039b29ff8a93e9fe7c3e51e1e9d11ccd711c0a48260405161088e9190611729565b60405180910390a25050565b5f5f5f8373ffffffffffffffffffffffffffffffffffffffff1673ffffffffffffffffffffffffffffffffffffffff1681526020019081526020015f20549050919050565b6108e7610f31565b6108f05f610fb8565b565b60085481565b5f60055f9054906101000a900473ffffffffffffffffffffffffffffffffffffffff16905090565b60606004805461092f906119b3565b80601f016020809104026020016040519081016040528092919081815260200182805461095b906119b3565b80156109a65780601f1061097d576101008083540402835291602001916109a6565b820191905f5260205f20905b81548152906001019060200180831161098957829003601f168201915b5050505050905090565b5f5f6109ba6104df565b036109c7575f90506109f8565b6109cf6104df565b670de0b6b3a76400006109e18461089a565b6109eb9190611b6e565b6109f59190611bdc565b90505b919050565b5f5f610a07610cc6565b9050610a14818585610d72565b600191505092915050565b5f610a28610e62565b5f8211610a6a576040517f08c379a0000000000000000000000000000000000000000000000000000000008152600401610a6190611d16565b60405180910390fd5b5f610a736104df565b03610a8057819050610aa3565b600854610a8b6104df565b83610a969190611b6e565b610aa09190611bdc565b90505b7f000000000000000000000000000000000000000000000000000000000000000073ffffffffffffffffffffffffffffffffffffffff166323b872dd3330856040518463ffffffff1660e01b8152600401610b0093929190611d34565b6020604051808303815f875af1158015610b1c573d5f5f3e3d5ffd5b505050506040513d601f19601f82011682018060405250810190610b409190611c7a565b508160085f828254610b529190611d69565b92505081905550610b63338261107b565b3373ffffffffffffffffffffffffffffffffffffffff167f9947fdc63750be06607576b652d1d596250cb115aaaa49b224619147546896ee8383604051610bab929190611ca5565b60405180910390a2610bbb610f27565b919050565b5f60015f8473ffffffffffffffffffffffffffffffffffffffff1673ffffffffffffffffffffffffffffffffffffffff1681526020019081526020015f205f8373ffffffffffffffffffffffffffffffffffffffff1673ffffffffffffffffffffffffffffffffffffffff1681526020019081526020015f2054905092915050565b610c4a610f31565b5f73ffffffffffffffffffffffffffffffffffffffff168173ffffffffffffffffffffffffffffffffffffffff1603610cba575f6040517f1e4fbdf7000000000000000000000000000000000000000000000000000000008152600401610cb1919061192f565b60405180910390fd5b610cc381610fb8565b50565b5f33905090565b610cda83838360016110fa565b505050565b5f610cea8484610bc0565b90507fffffffffffffffffffffffffffffffffffffffffffffffffffffffffffffffff811015610d6c5781811015610d5d578281836040517ffb8f41b2000000000000000000000000000000000000000000000000000000008152600401610d5493929190611d9c565b60405180910390fd5b610d6b84848484035f6110fa565b5b50505050565b5f73ffffffffffffffffffffffffffffffffffffffff168373ffffffffffffffffffffffffffffffffffffffff1603610de2575f6040517f96c6fd1e000000000000000000000000000000000000000000000000000000008152600401610dd9919061192f565b60405180910390fd5b5f73ffffffffffffffffffffffffffffffffffffffff168273ffffffffffffffffffffffffffffffffffffffff1603610e52575f6040517fec442f05000000000000000000000000000000000000000000000000000000008152600401610e49919061192f565b60405180910390fd5b610e5d8383836112c9565b505050565b600260065403610e9e576040517f3ee5aeb500000000000000000000000000000000000000000000000000000000815260040160405180910390fd5b6002600681905550565b5f73ffffffffffffffffffffffffffffffffffffffff168273ffffffffffffffffffffffffffffffffffffffff1603610f18575f6040517f96c6fd1e000000000000000000000000000000000000000000000000000000008152600401610f0f919061192f565b60405180910390fd5b610f23825f836112c9565b5050565b6001600681905550565b610f39610cc6565b73ffffffffffffffffffffffffffffffffffffffff16610f576108f8565b73ffffffffffffffffffffffffffffffffffffffff1614610fb657610f7a610cc6565b6040517f118cdaa7000000000000000000000000000000000000000000000000000000008152600401610fad919061192f565b60405180910390fd5b565b5f60055f9054906101000a900473ffffffffffffffffffffffffffffffffffffffff1690508160055f6101000a81548173ffffffffffffffffffffffffffffffffffffffff021916908373ffffffffffffffffffffffffffffffffffffffff1602179055508173ffffffffffffffffffffffffffffffffffffffff168173ffffffffffffffffffffffffffffffffffffffff167f8be0079c531659141344cd1fd0a4f28419497f9722a3daafe3b4186f6b6457e060405160405180910390a35050565b5f73ffffffffffffffffffffffffffffffffffffffff168273ffffffffffffffffffffffffffffffffffffffff16036110eb575f6040517fec442f050000000000000000000000000000000000000000000000000000000081526004016110e2919061192f565b60405180910390fd5b6110f65f83836112c9565b5050565b5f73ffffffffffffffffffffffffffffffffffffffff168473ffffffffffffffffffffffffffffffffffffffff160361116a575f6040517fe602df05000000000000000000000000000000000000000000000000000000008152600401611161919061192f565b60405180910390fd5b5f73ffffffffffffffffffffffffffffffffffffffff168373ffffffffffffffffffffffffffffffffffffffff16036111da575f6040517f94280d620000000000000000000000000000000000000000000000000000000081526004016111d1919061192f565b60405180910390fd5b8160015f8673ffffffffffffffffffffffffffffffffffffffff1673ffffffffffffffffffffffffffffffffffffffff1681526020019081526020015f205f8573ffffffffffffffffffffffffffffffffffffffff1673ffffffffffffffffffffffffffffffffffffffff1681526020019081526020015f208190555080156112c3578273ffffffffffffffffffffffffffffffffffffffff168473ffffffffffffffffffffffffffffffffffffffff167f8c5be1e5ebec7d5bd14f71427d1e84f3dd0314c0f7b2291e5b200ac8c7c3b925846040516112ba919061177c565b60405180910390a35b50505050565b5f73ffffffffffffffffffffffffffffffffffffffff168373ffffffffffffffffffffffffffffffffffffffff16146113875760075f8473ffffffffffffffffffffffffffffffffffffffff1673ffffffffffffffffffffffffffffffffffffffff1681526020019081526020015f205f9054906101000a900460ff1615611386576040517f08c379a000000000000000000000000000000000000000000000000000000000815260040161137d90611e41565b60405180910390fd5b5b611392838383611397565b505050565b5f73ffffffffffffffffffffffffffffffffffffffff168373ffffffffffffffffffffffffffffffffffffffff16036113e7578060025f8282546113db9190611d69565b925050819055506114b5565b5f5f5f8573ffffffffffffffffffffffffffffffffffffffff1673ffffffffffffffffffffffffffffffffffffffff1681526020019081526020015f2054905081811015611470578381836040517fe450d38c00000000000000000000000000000000000000000000000000000000815260040161146793929190611d9c565b60405180910390fd5b8181035f5f8673ffffffffffffffffffffffffffffffffffffffff1673ffffffffffffffffffffffffffffffffffffffff1681526020019081526020015f2081905550505b5f73ffffffffffffffffffffffffffffffffffffffff168273ffffffffffffffffffffffffffffffffffffffff16036114fc578060025f8282540392505081905550611546565b805f5f8473ffffffffffffffffffffffffffffffffffffffff1673ffffffffffffffffffffffffffffffffffffffff1681526020019081526020015f205f82825401925050819055505b8173ffffffffffffffffffffffffffffffffffffffff168373ffffffffffffffffffffffffffffffffffffffff167fddf252ad1be2c89b69c2b068fc378daa952ba7f163c4a11628f55a4df523b3ef836040516115a3919061177c565b60405180910390a3505050565b5f81519050919050565b5f82825260208201905092915050565b8281835e5f83830152505050565b5f601f19601f8301169050919050565b5f6115f2826115b0565b6115fc81856115ba565b935061160c8185602086016115ca565b611615816115d8565b840191505092915050565b5f6020820190508181035f83015261163881846115e8565b905092915050565b5f5ffd5b5f73ffffffffffffffffffffffffffffffffffffffff82169050919050565b5f61166d82611644565b9050919050565b61167d81611663565b8114611687575f5ffd5b50565b5f8135905061169881611674565b92915050565b5f819050919050565b6116b08161169e565b81146116ba575f5ffd5b50565b5f813590506116cb816116a7565b92915050565b5f5f604083850312156116e7576116e6611640565b5b5f6116f48582860161168a565b9250506020611705858286016116bd565b9150509250929050565b5f8115159050919050565b6117238161170f565b82525050565b5f60208201905061173c5f83018461171a565b92915050565b5f6020828403121561175757611756611640565b5b5f6117648482850161168a565b91505092915050565b6117768161169e565b82525050565b5f60208201905061178f5f83018461176d565b92915050565b5f5f5f606084860312156117ac576117ab611640565b5b5f6117b98682870161168a565b93505060206117ca8682870161168a565b92505060406117db868287016116bd565b9150509250925092565b5f819050919050565b5f6118086118036117fe84611644565b6117e5565b611644565b9050919050565b5f611819826117ee565b9050919050565b5f61182a8261180f565b9050919050565b61183a81611820565b82525050565b5f6020820190506118535f830184611831565b92915050565b5f6020828403121561186e5761186d611640565b5b5f61187b848285016116bd565b91505092915050565b5f60ff82169050919050565b61189981611884565b82525050565b5f6020820190506118b25f830184611890565b92915050565b6118c18161170f565b81146118cb575f5ffd5b50565b5f813590506118dc816118b8565b92915050565b5f5f604083850312156118f8576118f7611640565b5b5f6119058582860161168a565b9250506020611916858286016118ce565b9150509250929050565b61192981611663565b82525050565b5f6020820190506119425f830184611920565b92915050565b5f5f6040838503121561195e5761195d611640565b5b5f61196b8582860161168a565b925050602061197c8582860161168a565b9150509250929050565b7f4e487b71000000000000000000000000000000000000000000000000000000005f52602260045260245ffd5b5f60028204905060018216806119ca57607f821691505b6020821081036119dd576119dc611986565b5b50919050565b7f536861726573206d7573742062652067726561746572207468616e20300000005f82015250565b5f611a17601d836115ba565b9150611a22826119e3565b602082019050919050565b5f6020820190508181035f830152611a4481611a0b565b9050919050565b7f496e73756666696369656e7420736861726573000000000000000000000000005f82015250565b5f611a7f6013836115ba565b9150611a8a82611a4b565b602082019050919050565b5f6020820190508181035f830152611aac81611a73565b9050919050565b7f53656c6c696e6720697320626c6f636b656420666f72207468697320616464725f8201527f6573730000000000000000000000000000000000000000000000000000000000602082015250565b5f611b0d6023836115ba565b9150611b1882611ab3565b604082019050919050565b5f6020820190508181035f830152611b3a81611b01565b9050919050565b7f4e487b71000000000000000000000000000000000000000000000000000000005f52601160045260245ffd5b5f611b788261169e565b9150611b838361169e565b9250828202611b918161169e565b91508282048414831517611ba857611ba7611b41565b5b5092915050565b7f4e487b71000000000000000000000000000000000000000000000000000000005f52601260045260245ffd5b5f611be68261169e565b9150611bf18361169e565b925082611c0157611c00611baf565b5b828204905092915050565b5f611c168261169e565b9150611c218361169e565b9250828203905081811115611c3957611c38611b41565b5b92915050565b5f604082019050611c525f830185611920565b611c5f602083018461176d565b9392505050565b5f81519050611c74816118b8565b92915050565b5f60208284031215611c8f57611c8e611640565b5b5f611c9c84828501611c66565b91505092915050565b5f604082019050611cb85f83018561176d565b611cc5602083018461176d565b9392505050565b7f416d6f756e74206d7573742062652067726561746572207468616e20300000005f82015250565b5f611d00601d836115ba565b9150611d0b82611ccc565b602082019050919050565b5f6020820190508181035f830152611d2d81611cf4565b9050919050565b5f606082019050611d475f830186611920565b611d546020830185611920565b611d61604083018461176d565b949350505050565b5f611d738261169e565b9150611d7e8361169e565b9250828201905080821115611d9657611d95611b41565b5b92915050565b5f606082019050611daf5f830186611920565b611dbc602083018561176d565b611dc9604083018461176d565b949350505050565b7f5472616e736665727320626c6f636b656420666f7220746869732061646472655f8201527f7373000000000000000000000000000000000000000000000000000000000000602082015250565b5f611e2b6022836115ba565b9150611e3682611dd1565b604082019050919050565b5f6020820190508181035f830152611e5881611e1f565b905091905056fea2646970667358221220dac62696bb59ba03f0ce60aa161b6aa5d4b9ee4f81aed9a83876922eaa3a012f64736f6c634300081c0033","linkReferences":{}},"methodIdentifiers":{"allowance(address,address)":"dd62ed3e","approve(address,uint256)":"095ea7b3","balanceOf(address)":"70a08231","decimals()":"313ce567","deposit(uint256)":"b6b55f25","exchangeRate()":"3ba0b9a9","getOwnershipPercentage(address)":"a2931fe8","name()":"06fdde03","owner()":"8da5cb5b","renounceOwnership()":"715018a6","sellBlocked(address)":"0f800e04","setSellBlocked(address,bool)":"60c36b25","symbol()":"95d89b41","totalSupply()":"18160ddd","totalUnderlyingBacked()":"8566a203","transfer(address,uint256)":"a9059cbb","transferFrom(address,address,uint256)":"23b872dd","transferOwnership(address)":"f2fde38b","underlyingToken()":"2495a599","withdraw(uint256)":"2e1a7d4d"},"id":35}