{"abi":[{"type":"constructor","inputs":[{"name":"_governanceToken","type":"address","internalType":"contract IERC20"}],"stateMutability":"nonpayable"},{"type":"function","name":"MIN_PROPOSAL_THRESHOLD","inputs":[],"outputs":[{"name":"","type":"uint256","internalType":"uint256"}],"stateMutability":"view"},{"type":"function","name":"QUORUM_THRESHOLD","inputs":[],"outputs":[{"name":"","type":"uint256","internalType":"uint256"}],"stateMutability":"view"},{"type":"function","name":"VOTING_PERIOD","inputs":[],"outputs":[{"name":"","type":"uint256","internalType":"uint256"}],"stateMutability":"view"},{"type":"function","name":"createProposal","inputs":[{"name":"description","type":"string","internalType":"string"}],"outputs":[{"name":"proposalId","type":"uint256","internalType":"uint256"}],"stateMutability":"nonpayable"},{"type":"function","name":"executeProposal","inputs":[{"name":"proposalId","type":"uint256","internalType":"uint256"}],"outputs":[],"stateMutability":"nonpayable"},{"type":"function","name":"getProposal","inputs":[{"name":"proposalId","type":"uint256","internalType":"uint256"}],"outputs":[{"name":"id","type":"uint256","internalType":"uint256"},{"name":"proposer","type":"address","internalType":"address"},{"name":"description","type":"string","internalType":"string"},{"name":"votesFor","type":"uint256","internalType":"uint256"},{"name":"votesAgainst","type":"uint256","internalType":"uint256"},{"name":"startTime","type":"uint256","internalType":"uint256"},{"name":"endTime","type":"uint256","internalType":"uint256"},{"name":"executed","type":"bool","internalType":"bool"}],"stateMutability":"view"},{"type":"function","name":"getProposalState","inputs":[{"name":"proposalId","type":"uint256","internalType":"uint256"}],"outputs":[{"name":"state","type":"uint256","internalType":"uint256"}],"stateMutability":"view"},{"type":"function","name":"getVoteStatus","inputs":[{"name":"proposalId","type":"uint256","internalType":"uint256"},{"name":"voter","type":"address","internalType":"address"}],"outputs":[{"name":"hasVoted","type":"bool","internalType":"bool"},{"name":"votingPower","type":"uint256","internalType":"uint256"}],"stateMutability":"view"},{"type":"function","name":"governanceToken","inputs":[],"outputs":[{"name":"","type":"address","internalType":"contract IERC20"}],"stateMutability":"view"},{"type":"function","name":"proposalCount","inputs":[],"outputs":[{"name":"","type":"uint256","internalType":"uint256"}],"stateMutability":"view"},{"type":"function","name":"proposals","inputs":[{"name":"","type":"uint256","internalType":"uint256"}],"outputs":[{"name":"id","type":"uint256","internalType":"uint256"},{"name":"proposer","type":"address","internalType":"address"},{"name":"description","type":"string","internalType":"string"},{"name":"votesFor","type":"uint256","internalType":"uint256"},{"name":"votesAgainst","type":"uint256","internalType":"uint256"},{"name":"startTime","type":"uint256","internalType":"uint256"},{"name":"endTime","type":"uint256","internalType":"uint256"},{"name":"executed","type":"bool","internalType":"bool"}],"stateMutability":"view"},{"type":"function","name":"vote","inputs":[{"name":"proposalId","type":"uint256","internalType":"uint256"},{"name":"support","type":"bool","internalType":"bool"}],"outputs":[],"stateMutability":"nonpayable"},{"type":"event","name":"ProposalCreated","inputs":[{"name":"proposalId","type":"uint256","indexed":true,"internalType":"uint256"},{"name":"proposer","type":"address","indexed":true,"internalType":"address"},{"name":"description","type":"string","indexed":false,"internalType":"string"},{"name":"startTime","type":"uint256","indexed":false,"internalType":"uint256"},{"name":"endTime","type":"uint256","indexed":false,"internalType":"uint256"}],"anonymous":false},{"type":"event","name":"ProposalExecuted","inputs":[{"name":"proposalId","type":"uint256","indexed":true,"internalType":"uint256"},{"name":"passed","type":"bool","indexed":false,"internalType":"bool"}],"anonymous":false},{"type":"event","name":"VoteCast","inputs":[{"name":"proposalId","type":"uint256","indexed":true,"internalType":"uint256"},{"name":"voter","type":"address","indexed":true,"internalType":"address"},{"name":"support","type":"bool","indexed":false,"internalType":"bool"},{"name":"votingPower","type":"uint256","indexed":false,"internalType":"uint256"}],"anonymous":false},{"type":"error","name":"ReentrancyGuardReentrantCall","inputs":[]}],"bytecode":{"object":"0x60a060405234801561000f575f5ffd5b50604051611d50380380611d50833981810160405281019061003191906100e1565b60015f819055508073ffffffffffffffffffffffffffffffffffffffff1660808173ffffffffffffffffffffffffffffffffffffffff16815250505061010c565b5f5ffd5b5f73ffffffffffffffffffffffffffffffffffffffff82169050919050565b5f61009f82610076565b9050919050565b5f6100b082610095565b9050919050565b6100c0816100a6565b81146100ca575f5ffd5b50565b5f815190506100db816100b7565b92915050565b5f602082840312156100f6576100f5610072565b5b5f610103848285016100cd565b91505092915050565b608051611c1e6101325f395f818161054001528181610b5d0152610e6b0152611c1e5ff3fe608060405234801561000f575f5ffd5b50600436106100b2575f3560e01c8063b1610d7e1161006f578063b1610d7e146101a5578063c7f758a8146101c3578063c9d27afe146101fa578063cdeed60514610216578063da35c66414610247578063f96dae0a14610265576100b2565b8063013cf08b146100b65780630d61b519146100ed57806349c2a1a6146101095780635e510b6014610139578063791f5d23146101575780639080936f14610175575b5f5ffd5b6100d060048036038101906100cb9190610f1e565b610283565b6040516100e4989796959493929190611021565b60405180910390f35b61010760048036038101906101029190610f1e565b610378565b005b610123600480360381019061011e91906111d0565b610533565b6040516101309190611217565b60405180910390f35b61014161077e565b60405161014e9190611217565b60405180910390f35b61015f61078c565b60405161016c9190611217565b60405180910390f35b61018f600480360381019061018a9190610f1e565b610799565b60405161019c9190611217565b60405180910390f35b6101ad610881565b6040516101ba9190611217565b60405180910390f35b6101dd60048036038101906101d89190610f1e565b610888565b6040516101f1989796959493929190611021565b60405180910390f35b610214600480360381019061020f919061125a565b6109e0565b005b610230600480360381019061022b91906112c2565b610d71565b60405161023e929190611300565b60405180910390f35b61024f610e63565b60405161025c9190611217565b60405180910390f35b61026d610e69565b60405161027a9190611382565b60405180910390f35b6001602052805f5260405f205f91509050805f015490806001015f9054906101000a900473ffffffffffffffffffffffffffffffffffffffff16908060020180546102cd906113c8565b80601f01602080910402602001604051908101604052809291908181526020018280546102f9906113c8565b80156103445780601f1061031b57610100808354040283529160200191610344565b820191905f5260205f20905b81548152906001019060200180831161032757829003601f168201915b505050505090806003015490806004015490806005015490806006015490806007015f9054906101000a900460ff16905088565b5f60015f8381526020019081526020015f20905060025482106103d0576040517f08c379a00000000000000000000000000000000000000000000000000000000081526004016103c790611442565b60405180910390fd5b80600601544211610416576040517f08c379a000000000000000000000000000000000000000000000000000000000815260040161040d906114aa565b60405180910390fd5b806007015f9054906101000a900460ff1615610467576040517f08c379a000000000000000000000000000000000000000000000000000000000815260040161045e90611512565b60405180910390fd5b5f8160040154826003015461047c919061155d565b905069021e19e0c9bab24000008110156104cb576040517f08c379a00000000000000000000000000000000000000000000000000000000081526004016104c2906115da565b60405180910390fd5b6001826007015f6101000a81548160ff0219169083151502179055505f82600401548360030154119050837f948f4a9cd986f1118c3fbd459f7a22b23c0693e1ca3ef06a6a8be5aa7d39cc038260405161052591906115f8565b60405180910390a250505050565b5f683635c9adc5dea000007f000000000000000000000000000000000000000000000000000000000000000073ffffffffffffffffffffffffffffffffffffffff166370a08231336040518263ffffffff1660e01b81526004016105979190611611565b602060405180830381865afa1580156105b2573d5f5f3e3d5ffd5b505050506040513d601f19601f820116820180604052508101906105d6919061163e565b1015610617576040517f08c379a000000000000000000000000000000000000000000000000000000000815260040161060e906116d9565b60405180910390fd5b5f82511161065a576040517f08c379a000000000000000000000000000000000000000000000000000000000815260040161065190611741565b60405180910390fd5b60025f81548092919061066c9061175f565b9190505590505f60015f8381526020019081526020015f20905081815f018190555033816001015f6101000a81548173ffffffffffffffffffffffffffffffffffffffff021916908373ffffffffffffffffffffffffffffffffffffffff160217905550828160020190816106e1919061193d565b5042816005018190555062093a80426106fa919061155d565b81600601819055505f816007015f6101000a81548160ff0219169083151502179055503373ffffffffffffffffffffffffffffffffffffffff16827f6c98a8c940418b35614f0cd02412d5c9606faff474cbb6cdd6640ba5d1a9f06b858460050154856006015460405161077093929190611a0c565b60405180910390a350919050565b69021e19e0c9bab240000081565b683635c9adc5dea0000081565b5f60025482106107de576040517f08c379a00000000000000000000000000000000000000000000000000000000081526004016107d590611442565b60405180910390fd5b5f60015f8481526020019081526020015f209050806007015f9054906101000a900460ff161561081257600391505061087c565b80600601544211610826575f91505061087c565b5f8160040154826003015461083b919061155d565b905069021e19e0c9bab240000081101561085a5760029250505061087c565b8160040154826003015411156108755760019250505061087c565b6002925050505b919050565b62093a8081565b5f5f60605f5f5f5f5f60025489106108d5576040517f08c379a00000000000000000000000000000000000000000000000000000000081526004016108cc90611442565b60405180910390fd5b5f60015f8b81526020019081526020015f209050805f0154816001015f9054906101000a900473ffffffffffffffffffffffffffffffffffffffff16826002018360030154846004015485600501548660060154876007015f9054906101000a900460ff16858054610946906113c8565b80601f0160208091040260200160405190810160405280929190818152602001828054610972906113c8565b80156109bd5780601f10610994576101008083540402835291602001916109bd565b820191905f5260205f20905b8154815290600101906020018083116109a057829003601f168201915b505050505095509850985098509850985098509850985050919395975091939597565b6109e8610e8d565b5f60015f8481526020019081526020015f2090506002548310610a40576040517f08c379a0000000000000000000000000000000000000000000000000000000008152600401610a3790611442565b60405180910390fd5b8060050154421015610a87576040517f08c379a0000000000000000000000000000000000000000000000000000000008152600401610a7e90611a92565b60405180910390fd5b8060060154421115610ace576040517f08c379a0000000000000000000000000000000000000000000000000000000008152600401610ac590611afa565b60405180910390fd5b806008015f3373ffffffffffffffffffffffffffffffffffffffff1673ffffffffffffffffffffffffffffffffffffffff1681526020019081526020015f205f9054906101000a900460ff1615610b5a576040517f08c379a0000000000000000000000000000000000000000000000000000000008152600401610b5190611b62565b60405180910390fd5b5f7f000000000000000000000000000000000000000000000000000000000000000073ffffffffffffffffffffffffffffffffffffffff166370a08231336040518263ffffffff1660e01b8152600401610bb49190611611565b602060405180830381865afa158015610bcf573d5f5f3e3d5ffd5b505050506040513d601f19601f82011682018060405250810190610bf3919061163e565b90505f8111610c37576040517f08c379a0000000000000000000000000000000000000000000000000000000008152600401610c2e90611bca565b60405180910390fd5b6001826008015f3373ffffffffffffffffffffffffffffffffffffffff1673ffffffffffffffffffffffffffffffffffffffff1681526020019081526020015f205f6101000a81548160ff02191690831515021790555080826009015f3373ffffffffffffffffffffffffffffffffffffffff1673ffffffffffffffffffffffffffffffffffffffff1681526020019081526020015f20819055508215610cf75780826003015f828254610ceb919061155d565b92505081905550610d12565b80826004015f828254610d0a919061155d565b925050819055505b3373ffffffffffffffffffffffffffffffffffffffff16847fcbdf6214089cba887ecbf35a0b6a734589959c9763342c756bb2a80ca2bc9f6e8584604051610d5b929190611300565b60405180910390a35050610d6d610ed1565b5050565b5f5f6002548410610db7576040517f08c379a0000000000000000000000000000000000000000000000000000000008152600401610dae90611442565b60405180910390fd5b5f60015f8681526020019081526020015f209050806008015f8573ffffffffffffffffffffffffffffffffffffffff1673ffffffffffffffffffffffffffffffffffffffff1681526020019081526020015f205f9054906101000a900460ff16816009015f8673ffffffffffffffffffffffffffffffffffffffff1673ffffffffffffffffffffffffffffffffffffffff1681526020019081526020015f205492509250509250929050565b60025481565b7f000000000000000000000000000000000000000000000000000000000000000081565b60025f5403610ec8576040517f3ee5aeb500000000000000000000000000000000000000000000000000000000815260040160405180910390fd5b60025f81905550565b60015f81905550565b5f604051905090565b5f5ffd5b5f5ffd5b5f819050919050565b610efd81610eeb565b8114610f07575f5ffd5b50565b5f81359050610f1881610ef4565b92915050565b5f60208284031215610f3357610f32610ee3565b5b5f610f4084828501610f0a565b91505092915050565b610f5281610eeb565b82525050565b5f73ffffffffffffffffffffffffffffffffffffffff82169050919050565b5f610f8182610f58565b9050919050565b610f9181610f77565b82525050565b5f81519050919050565b5f82825260208201905092915050565b8281835e5f83830152505050565b5f601f19601f8301169050919050565b5f610fd982610f97565b610fe38185610fa1565b9350610ff3818560208601610fb1565b610ffc81610fbf565b840191505092915050565b5f8115159050919050565b61101b81611007565b82525050565b5f610100820190506110355f83018b610f49565b611042602083018a610f88565b81810360408301526110548189610fcf565b90506110636060830188610f49565b6110706080830187610f49565b61107d60a0830186610f49565b61108a60c0830185610f49565b61109760e0830184611012565b9998505050505050505050565b5f5ffd5b5f5ffd5b7f4e487b71000000000000000000000000000000000000000000000000000000005f52604160045260245ffd5b6110e282610fbf565b810181811067ffffffffffffffff82111715611101576111006110ac565b5b80604052505050565b5f611113610eda565b905061111f82826110d9565b919050565b5f67ffffffffffffffff82111561113e5761113d6110ac565b5b61114782610fbf565b9050602081019050919050565b828183375f83830152505050565b5f61117461116f84611124565b61110a565b9050828152602081018484840111156111905761118f6110a8565b5b61119b848285611154565b509392505050565b5f82601f8301126111b7576111b66110a4565b5b81356111c7848260208601611162565b91505092915050565b5f602082840312156111e5576111e4610ee3565b5b5f82013567ffffffffffffffff81111561120257611201610ee7565b5b61120e848285016111a3565b91505092915050565b5f60208201905061122a5f830184610f49565b92915050565b61123981611007565b8114611243575f5ffd5b50565b5f8135905061125481611230565b92915050565b5f5f604083850312156112705761126f610ee3565b5b5f61127d85828601610f0a565b925050602061128e85828601611246565b9150509250929050565b6112a181610f77565b81146112ab575f5ffd5b50565b5f813590506112bc81611298565b92915050565b5f5f604083850312156112d8576112d7610ee3565b5b5f6112e585828601610f0a565b92505060206112f6858286016112ae565b9150509250929050565b5f6040820190506113135f830185611012565b6113206020830184610f49565b9392505050565b5f819050919050565b5f61134a61134561134084610f58565b611327565b610f58565b9050919050565b5f61135b82611330565b9050919050565b5f61136c82611351565b9050919050565b61137c81611362565b82525050565b5f6020820190506113955f830184611373565b92915050565b7f4e487b71000000000000000000000000000000000000000000000000000000005f52602260045260245ffd5b5f60028204905060018216806113df57607f821691505b6020821081036113f2576113f161139b565b5b50919050565b7f50726f706f73616c20646f6573206e6f742065786973740000000000000000005f82015250565b5f61142c601783610fa1565b9150611437826113f8565b602082019050919050565b5f6020820190508181035f83015261145981611420565b9050919050565b7f566f74696e6720706572696f64206e6f7420656e6465640000000000000000005f82015250565b5f611494601783610fa1565b915061149f82611460565b602082019050919050565b5f6020820190508181035f8301526114c181611488565b9050919050565b7f50726f706f73616c20616c7265616479206578656375746564000000000000005f82015250565b5f6114fc601983610fa1565b9150611507826114c8565b602082019050919050565b5f6020820190508181035f830152611529816114f0565b9050919050565b7f4e487b71000000000000000000000000000000000000000000000000000000005f52601160045260245ffd5b5f61156782610eeb565b915061157283610eeb565b925082820190508082111561158a57611589611530565b5b92915050565b7f51756f72756d206e6f74207265616368656400000000000000000000000000005f82015250565b5f6115c4601283610fa1565b91506115cf82611590565b602082019050919050565b5f6020820190508181035f8301526115f1816115b8565b9050919050565b5f60208201905061160b5f830184611012565b92915050565b5f6020820190506116245f830184610f88565b92915050565b5f8151905061163881610ef4565b92915050565b5f6020828403121561165357611652610ee3565b5b5f6116608482850161162a565b91505092915050565b7f496e73756666696369656e7420746f6b656e7320746f206372656174652070725f8201527f6f706f73616c0000000000000000000000000000000000000000000000000000602082015250565b5f6116c3602683610fa1565b91506116ce82611669565b604082019050919050565b5f6020820190508181035f8301526116f0816116b7565b9050919050565b7f4465736372697074696f6e2063616e6e6f7420626520656d70747900000000005f82015250565b5f61172b601b83610fa1565b9150611736826116f7565b602082019050919050565b5f6020820190508181035f8301526117588161171f565b9050919050565b5f61176982610eeb565b91507fffffffffffffffffffffffffffffffffffffffffffffffffffffffffffffffff820361179b5761179a611530565b5b600182019050919050565b5f819050815f5260205f209050919050565b5f6020601f8301049050919050565b5f82821b905092915050565b5f600883026118027fffffffffffffffffffffffffffffffffffffffffffffffffffffffffffffffff826117c7565b61180c86836117c7565b95508019841693508086168417925050509392505050565b5f61183e61183961183484610eeb565b611327565b610eeb565b9050919050565b5f819050919050565b61185783611824565b61186b61186382611845565b8484546117d3565b825550505050565b5f5f905090565b611882611873565b61188d81848461184e565b505050565b5b818110156118b0576118a55f8261187a565b600181019050611893565b5050565b601f8211156118f5576118c6816117a6565b6118cf846117b8565b810160208510156118de578190505b6118f26118ea856117b8565b830182611892565b50505b505050565b5f82821c905092915050565b5f6119155f19846008026118fa565b1980831691505092915050565b5f61192d8383611906565b9150826002028217905092915050565b61194682610f97565b67ffffffffffffffff81111561195f5761195e6110ac565b5b61196982546113c8565b6119748282856118b4565b5f60209050601f8311600181146119a5575f8415611993578287015190505b61199d8582611922565b865550611a04565b601f1984166119b3866117a6565b5f5b828110156119da578489015182556001820191506020850194506020810190506119b5565b868310156119f757848901516119f3601f891682611906565b8355505b6001600288020188555050505b505050505050565b5f6060820190508181035f830152611a248186610fcf565b9050611a336020830185610f49565b611a406040830184610f49565b949350505050565b7f566f74696e6720686173206e6f742073746172746564000000000000000000005f82015250565b5f611a7c601683610fa1565b9150611a8782611a48565b602082019050919050565b5f6020820190508181035f830152611aa981611a70565b9050919050565b7f566f74696e672068617320656e646564000000000000000000000000000000005f82015250565b5f611ae4601083610fa1565b9150611aef82611ab0565b602082019050919050565b5f6020820190508181035f830152611b1181611ad8565b9050919050565b7f416c726561647920766f746564000000000000000000000000000000000000005f82015250565b5f611b4c600d83610fa1565b9150611b5782611b18565b602082019050919050565b5f6020820190508181035f830152611b7981611b40565b9050919050565b7f4e6f20766f74696e6720706f77657200000000000000000000000000000000005f82015250565b5f611bb4600f83610fa1565b9150611bbf82611b80565b602082019050919050565b5f6020820190508181035f830152611be181611ba8565b905091905056fea2646970667358221220a9d3594ef10443f4c695f11a7f9bee46b84006e86fe3182e9ffd33a4193ccb3064736f6c634300081c0033","linkReferences":{}},"methodIdentifiers":{"MIN_PROPOSAL_THRESHOLD()":"791f5d23","QUORUM_THRESHOLD()":"5e510b60","VOTING_PERIOD()":"b1610d7e","createProposal(string)":"49c2a1a6","executeProposal(uint256)":"0d61b519","getProposal(uint256)":"c7f758a8","getProposalState(uint256)":"9080936f","getVoteStatus(uint256,address)":"cdeed605","governanceToken()":"f96dae0a","proposalCount()":"da35c664","proposals(uint256)":"013cf08b","vote(uint256,bool)":"c9d27afe"},"id":34}