{"abi":[{"type":"constructor","inputs":[{"name":"daiToken","type":"address","internalType":"contract IERC20"}],"stateMutability":"nonpayable"},{"type":"function","name":"allowance","inputs":[{"name":"owner","type":"address","internalType":"address"},{"name":"spender","type":"address","internalType":"address"}],"outputs":[{"name":"","type":"uint256","internalType":"uint256"}],"stateMutability":"view"},{"type":"function","name":"approve","inputs":[{"name":"spender","type":"address","internalType":"address"},{"name":"value","type":"uint256","internalType":"uint256"}],"outputs":[{"name":"","type":"bool","internalType":"bool"}],"stateMutability":"nonpayable"},{"type":"function","name":"balanceOf","inputs":[{"name":"account","type":"address","internalType":"address"}],"outputs":[{"name":"","type":"uint256","internalType":"uint256"}],"stateMutability":"view"},{"type":"function","name":"decimals","inputs":[],"outputs":[{"name":"","type":"uint8","internalType":"uint8"}],"stateMutability":"view"},{"type":"function","name":"deposit","inputs":[{"name":"amount","type":"uint256","internalType":"uint256"}],"outputs":[{"name":"","type":"uint256","internalType":"uint256"}],"stateMutability":"nonpayable"},{"type":"function","name":"depositFor","inputs":[{"name":"account","type":"address","internalType":"address"},{"name":"value","type":"uint256","internalType":"uint256"}],"outputs":[{"name":"","type":"bool","internalType":"bool"}],"stateMutability":"nonpayable"},{"type":"function","name":"name","inputs":[],"outputs":[{"name":"","type":"string","internalType":"string"}],"stateMutability":"view"},{"type":"function","name":"symbol","inputs":[],"outputs":[{"name":"","type":"string","internalType":"string"}],"stateMutability":"view"},{"type":"function","name":"totalSupply","inputs":[],"outputs":[{"name":"","type":"uint256","internalType":"uint256"}],"stateMutability":"view"},{"type":"function","name":"transfer","inputs":[{"name":"to","type":"address","internalType":"address"},{"name":"value","type":"uint256","internalType":"uint256"}],"outputs":[{"name":"","type":"bool","internalType":"bool"}],"stateMutability":"nonpayable"},{"type":"function","name":"transferFrom","inputs":[{"name":"from","type":"address","internalType":"address"},{"name":"to","type":"address","internalType":"address"},{"name":"value","type":"uint256","internalType":"uint256"}],"outputs":[{"name":"","type":"bool","internalType":"bool"}],"stateMutability":"nonpayable"},{"type":"function","name":"underlying","inputs":[],"outputs":[{"name":"","type":"address","internalType":"contract IERC20"}],"stateMutability":"view"},{"type":"function","name":"withdraw","inputs":[{"name":"amount","type":"uint256","internalType":"uint256"}],"outputs":[{"name":"","type":"uint256","internalType":"uint256"}],"stateMutability":"nonpayable"},{"type":"function","name":"withdrawTo","inputs":[{"name":"account","type":"address","internalType":"address"},{"name":"value","type":"uint256","internalType":"uint256"}],"outputs":[{"name":"","type":"bool","internalType":"bool"}],"stateMutability":"nonpayable"},{"type":"event","name":"Approval","inputs":[{"name":"owner","type":"address","indexed":true,"internalType":"address"},{"name":"spender","type":"address","indexed":true,"internalType":"address"},{"name":"value","type":"uint256","indexed":false,"internalType":"uint256"}],"anonymous":false},{"type":"event","name":"Transfer","inputs":[{"name":"from","type":"address","indexed":true,"internalType":"address"},{"name":"to","type":"address","indexed":true,"internalType":"address"},{"name":"value","type":"uint256","indexed":false,"internalType":"uint256"}],"anonymous":false},{"type":"error","name":"ERC20InsufficientAllowance","inputs":[{"name":"spender","type":"address","internalType":"address"},{"name":"allowance","type":"uint256","internalType":"uint256"},{"name":"needed","type":"uint256","internalType":"uint256"}]},{"type":"error","name":"ERC20InsufficientBalance","inputs":[{"name":"sender","type":"address","internalType":"address"},{"name":"balance","type":"uint256","internalType":"uint256"},{"name":"needed","type":"uint256","internalType":"uint256"}]},{"type":"error","name":"ERC20InvalidApprover","inputs":[{"name":"approver","type":"address","internalType":"address"}]},{"type":"error","name":"ERC20InvalidReceiver","inputs":[{"name":"receiver","type":"address","internalType":"address"}]},{"type":"error","name":"ERC20InvalidSender","inputs":[{"name":"sender","type":"address","internalType":"address"}]},{"type":"error","name":"ERC20InvalidSpender","inputs":[{"name":"spender","type":"address","internalType":"address"}]},{"type":"error","name":"ERC20InvalidUnderlying","inputs":[{"name":"token","type":"address","internalType":"address"}]},{"type":"error","name":"SafeERC20FailedOperation","inputs":[{"name":"token","type":"address","internalType":"address"}]}],"bytecode":{"object":"0x60a060405234801561000f575f5ffd5b50604051611b4c380380611b4c833981810160405281019061003191906101da565b806040518060400160405280600b81526020017f57726170706564204441490000000000000000000000000000000000000000008152506040518060400160405280600481526020017f774441490000000000000000000000000000000000000000000000000000000081525081600390816100ad9190610442565b5080600490816100bd9190610442565b5050503073ffffffffffffffffffffffffffffffffffffffff168173ffffffffffffffffffffffffffffffffffffffff160361013057306040517f438d6fe30000000000000000000000000000000000000000000000000000000081526004016101279190610520565b60405180910390fd5b8073ffffffffffffffffffffffffffffffffffffffff1660808173ffffffffffffffffffffffffffffffffffffffff16815250505050610539565b5f5ffd5b5f73ffffffffffffffffffffffffffffffffffffffff82169050919050565b5f6101988261016f565b9050919050565b5f6101a98261018e565b9050919050565b6101b98161019f565b81146101c3575f5ffd5b50565b5f815190506101d4816101b0565b92915050565b5f602082840312156101ef576101ee61016b565b5b5f6101fc848285016101c6565b91505092915050565b5f81519050919050565b7f4e487b71000000000000000000000000000000000000000000000000000000005f52604160045260245ffd5b7f4e487b71000000000000000000000000000000000000000000000000000000005f52602260045260245ffd5b5f600282049050600182168061028057607f821691505b6020821081036102935761029261023c565b5b50919050565b5f819050815f5260205f209050919050565b5f6020601f8301049050919050565b5f82821b905092915050565b5f600883026102f57fffffffffffffffffffffffffffffffffffffffffffffffffffffffffffffffff826102ba565b6102ff86836102ba565b95508019841693508086168417925050509392505050565b5f819050919050565b5f819050919050565b5f61034361033e61033984610317565b610320565b610317565b9050919050565b5f819050919050565b61035c83610329565b6103706103688261034a565b8484546102c6565b825550505050565b5f5f905090565b610387610378565b610392818484610353565b505050565b5b818110156103b5576103aa5f8261037f565b600181019050610398565b5050565b601f8211156103fa576103cb81610299565b6103d4846102ab565b810160208510156103e3578190505b6103f76103ef856102ab565b830182610397565b50505b505050565b5f82821c905092915050565b5f61041a5f19846008026103ff565b1980831691505092915050565b5f610432838361040b565b9150826002028217905092915050565b61044b82610205565b67ffffffffffffffff8111156104645761046361020f565b5b61046e8254610269565b6104798282856103b9565b5f60209050601f8311600181146104aa575f8415610498578287015190505b6104a28582610427565b865550610509565b601f1984166104b886610299565b5f5b828110156104df578489015182556001820191506020850194506020810190506104ba565b868310156104fc57848901516104f8601f89168261040b565b8355505b6001600288020188555050505b505050505050565b61051a8161018e565b82525050565b5f6020820190506105335f830184610511565b92915050565b6080516115e66105665f395f8181610474015281816105d7015281816106240152610b7301526115e65ff3fe608060405234801561000f575f5ffd5b50600436106100e8575f3560e01c8063313ce5671161008a57806395d89b411161006457806395d89b4114610284578063a9059cbb146102a2578063b6b55f25146102d2578063dd62ed3e14610302576100e8565b8063313ce567146102185780636f307dc31461023657806370a0823114610254576100e8565b8063205c2878116100c6578063205c28781461015857806323b872dd146101885780632e1a7d4d146101b85780632f4f21e2146101e8576100e8565b806306fdde03146100ec578063095ea7b31461010a57806318160ddd1461013a575b5f5ffd5b6100f4610332565b604051610101919061110f565b60405180910390f35b610124600480360381019061011f91906111c0565b6103c2565b6040516101319190611218565b60405180910390f35b6101426103e4565b60405161014f9190611240565b60405180910390f35b610172600480360381019061016d91906111c0565b6103ed565b60405161017f9190611218565b60405180910390f35b6101a2600480360381019061019d9190611259565b6104a4565b6040516101af9190611218565b60405180910390f35b6101d260048036038101906101cd91906112a9565b6104d2565b6040516101df9190611240565b60405180910390f35b61020260048036038101906101fd91906111c0565b6104e6565b60405161020f9190611218565b60405180910390f35b610220610613565b60405161022d91906112ef565b60405180910390f35b61023e610621565b60405161024b9190611363565b60405180910390f35b61026e6004803603810190610269919061137c565b610648565b60405161027b9190611240565b60405180910390f35b61028c61068d565b604051610299919061110f565b60405180910390f35b6102bc60048036038101906102b791906111c0565b61071d565b6040516102c99190611218565b60405180910390f35b6102ec60048036038101906102e791906112a9565b61073f565b6040516102f99190611240565b60405180910390f35b61031c600480360381019061031791906113a7565b610753565b6040516103299190611240565b60405180910390f35b60606003805461034190611412565b80601f016020809104026020016040519081016040528092919081815260200182805461036d90611412565b80156103b85780601f1061038f576101008083540402835291602001916103b8565b820191905f5260205f20905b81548152906001019060200180831161039b57829003601f168201915b5050505050905090565b5f5f6103cc6107d5565b90506103d98185856107dc565b600191505092915050565b5f600254905090565b5f3073ffffffffffffffffffffffffffffffffffffffff168373ffffffffffffffffffffffffffffffffffffffff160361045e57826040517fec442f050000000000000000000000000000000000000000000000000000000081526004016104559190611451565b60405180910390fd5b61046f6104696107d5565b836107ee565b61049a7f0000000000000000000000000000000000000000000000000000000000000000848461086d565b6001905092915050565b5f5f6104ae6107d5565b90506104bb8582856108ec565b6104c685858561097f565b60019150509392505050565b5f6104dd33836103ed565b50819050919050565b5f5f6104f06107d5565b90503073ffffffffffffffffffffffffffffffffffffffff168173ffffffffffffffffffffffffffffffffffffffff160361056257306040517f96c6fd1e0000000000000000000000000000000000000000000000000000000081526004016105599190611451565b60405180910390fd5b3073ffffffffffffffffffffffffffffffffffffffff168473ffffffffffffffffffffffffffffffffffffffff16036105d257836040517fec442f050000000000000000000000000000000000000000000000000000000081526004016105c99190611451565b60405180910390fd5b6105fe7f0000000000000000000000000000000000000000000000000000000000000000823086610a6f565b6106088484610af1565b600191505092915050565b5f61061c610b70565b905090565b5f7f0000000000000000000000000000000000000000000000000000000000000000905090565b5f5f5f8373ffffffffffffffffffffffffffffffffffffffff1673ffffffffffffffffffffffffffffffffffffffff1681526020019081526020015f20549050919050565b60606004805461069c90611412565b80601f01602080910402602001604051908101604052809291908181526020018280546106c890611412565b80156107135780601f106106ea57610100808354040283529160200191610713565b820191905f5260205f20905b8154815290600101906020018083116106f657829003601f168201915b5050505050905090565b5f5f6107276107d5565b905061073481858561097f565b600191505092915050565b5f61074a33836104e6565b50819050919050565b5f60015f8473ffffffffffffffffffffffffffffffffffffffff1673ffffffffffffffffffffffffffffffffffffffff1681526020019081526020015f205f8373ffffffffffffffffffffffffffffffffffffffff1673ffffffffffffffffffffffffffffffffffffffff1681526020019081526020015f2054905092915050565b5f33905090565b6107e98383836001610c14565b505050565b5f73ffffffffffffffffffffffffffffffffffffffff168273ffffffffffffffffffffffffffffffffffffffff160361085e575f6040517f96c6fd1e0000000000000000000000000000000000000000000000000000000081526004016108559190611451565b60405180910390fd5b610869825f83610de3565b5050565b6108e7838473ffffffffffffffffffffffffffffffffffffffff1663a9059cbb85856040516024016108a092919061146a565b604051602081830303815290604052915060e01b6020820180517bffffffffffffffffffffffffffffffffffffffffffffffffffffffff8381831617835250505050610ffc565b505050565b5f6108f78484610753565b90507fffffffffffffffffffffffffffffffffffffffffffffffffffffffffffffffff811015610979578181101561096a578281836040517ffb8f41b200000000000000000000000000000000000000000000000000000000815260040161096193929190611491565b60405180910390fd5b61097884848484035f610c14565b5b50505050565b5f73ffffffffffffffffffffffffffffffffffffffff168373ffffffffffffffffffffffffffffffffffffffff16036109ef575f6040517f96c6fd1e0000000000000000000000000000000000000000000000000000000081526004016109e69190611451565b60405180910390fd5b5f73ffffffffffffffffffffffffffffffffffffffff168273ffffffffffffffffffffffffffffffffffffffff1603610a5f575f6040517fec442f05000000000000000000000000000000000000000000000000000000008152600401610a569190611451565b60405180910390fd5b610a6a838383610de3565b505050565b610aeb848573ffffffffffffffffffffffffffffffffffffffff166323b872dd868686604051602401610aa4939291906114c6565b604051602081830303815290604052915060e01b6020820180517bffffffffffffffffffffffffffffffffffffffffffffffffffffffff8381831617835250505050610ffc565b50505050565b5f73ffffffffffffffffffffffffffffffffffffffff168273ffffffffffffffffffffffffffffffffffffffff1603610b61575f6040517fec442f05000000000000000000000000000000000000000000000000000000008152600401610b589190611451565b60405180910390fd5b610b6c5f8383610de3565b5050565b5f7f000000000000000000000000000000000000000000000000000000000000000073ffffffffffffffffffffffffffffffffffffffff1663313ce5676040518163ffffffff1660e01b8152600401602060405180830381865afa925050508015610bf957506040513d601f19601f82011682018060405250810190610bf69190611525565b60015b610c0c57610c05611097565b9050610c11565b809150505b90565b5f73ffffffffffffffffffffffffffffffffffffffff168473ffffffffffffffffffffffffffffffffffffffff1603610c84575f6040517fe602df05000000000000000000000000000000000000000000000000000000008152600401610c7b9190611451565b60405180910390fd5b5f73ffffffffffffffffffffffffffffffffffffffff168373ffffffffffffffffffffffffffffffffffffffff1603610cf4575f6040517f94280d62000000000000000000000000000000000000000000000000000000008152600401610ceb9190611451565b60405180910390fd5b8160015f8673ffffffffffffffffffffffffffffffffffffffff1673ffffffffffffffffffffffffffffffffffffffff1681526020019081526020015f205f8573ffffffffffffffffffffffffffffffffffffffff1673ffffffffffffffffffffffffffffffffffffffff1681526020019081526020015f20819055508015610ddd578273ffffffffffffffffffffffffffffffffffffffff168473ffffffffffffffffffffffffffffffffffffffff167f8c5be1e5ebec7d5bd14f71427d1e84f3dd0314c0f7b2291e5b200ac8c7c3b92584604051610dd49190611240565b60405180910390a35b50505050565b5f73ffffffffffffffffffffffffffffffffffffffff168373ffffffffffffffffffffffffffffffffffffffff1603610e33578060025f828254610e27919061157d565b92505081905550610f01565b5f5f5f8573ffffffffffffffffffffffffffffffffffffffff1673ffffffffffffffffffffffffffffffffffffffff1681526020019081526020015f2054905081811015610ebc578381836040517fe450d38c000000000000000000000000000000000000000000000000000000008152600401610eb393929190611491565b60405180910390fd5b8181035f5f8673ffffffffffffffffffffffffffffffffffffffff1673ffffffffffffffffffffffffffffffffffffffff1681526020019081526020015f2081905550505b5f73ffffffffffffffffffffffffffffffffffffffff168273ffffffffffffffffffffffffffffffffffffffff1603610f48578060025f8282540392505081905550610f92565b805f5f8473ffffffffffffffffffffffffffffffffffffffff1673ffffffffffffffffffffffffffffffffffffffff1681526020019081526020015f205f82825401925050819055505b8173ffffffffffffffffffffffffffffffffffffffff168373ffffffffffffffffffffffffffffffffffffffff167fddf252ad1be2c89b69c2b068fc378daa952ba7f163c4a11628f55a4df523b3ef83604051610fef9190611240565b60405180910390a3505050565b5f5f60205f8451602086015f885af18061101b576040513d5f823e3d81fd5b3d92505f519150505f821461103457600181141561104f565b5f8473ffffffffffffffffffffffffffffffffffffffff163b145b1561109157836040517f5274afe70000000000000000000000000000000000000000000000000000000081526004016110889190611451565b60405180910390fd5b50505050565b5f6012905090565b5f81519050919050565b5f82825260208201905092915050565b8281835e5f83830152505050565b5f601f19601f8301169050919050565b5f6110e18261109f565b6110eb81856110a9565b93506110fb8185602086016110b9565b611104816110c7565b840191505092915050565b5f6020820190508181035f83015261112781846110d7565b905092915050565b5f5ffd5b5f73ffffffffffffffffffffffffffffffffffffffff82169050919050565b5f61115c82611133565b9050919050565b61116c81611152565b8114611176575f5ffd5b50565b5f8135905061118781611163565b92915050565b5f819050919050565b61119f8161118d565b81146111a9575f5ffd5b50565b5f813590506111ba81611196565b92915050565b5f5f604083850312156111d6576111d561112f565b5b5f6111e385828601611179565b92505060206111f4858286016111ac565b9150509250929050565b5f8115159050919050565b611212816111fe565b82525050565b5f60208201905061122b5f830184611209565b92915050565b61123a8161118d565b82525050565b5f6020820190506112535f830184611231565b92915050565b5f5f5f606084860312156112705761126f61112f565b5b5f61127d86828701611179565b935050602061128e86828701611179565b925050604061129f868287016111ac565b9150509250925092565b5f602082840312156112be576112bd61112f565b5b5f6112cb848285016111ac565b91505092915050565b5f60ff82169050919050565b6112e9816112d4565b82525050565b5f6020820190506113025f8301846112e0565b92915050565b5f819050919050565b5f61132b61132661132184611133565b611308565b611133565b9050919050565b5f61133c82611311565b9050919050565b5f61134d82611332565b9050919050565b61135d81611343565b82525050565b5f6020820190506113765f830184611354565b92915050565b5f602082840312156113915761139061112f565b5b5f61139e84828501611179565b91505092915050565b5f5f604083850312156113bd576113bc61112f565b5b5f6113ca85828601611179565b92505060206113db85828601611179565b9150509250929050565b7f4e487b71000000000000000000000000000000000000000000000000000000005f52602260045260245ffd5b5f600282049050600182168061142957607f821691505b60208210810361143c5761143b6113e5565b5b50919050565b61144b81611152565b82525050565b5f6020820190506114645f830184611442565b92915050565b5f60408201905061147d5f830185611442565b61148a6020830184611231565b9392505050565b5f6060820190506114a45f830186611442565b6114b16020830185611231565b6114be6040830184611231565b949350505050565b5f6060820190506114d95f830186611442565b6114e66020830185611442565b6114f36040830184611231565b949350505050565b611504816112d4565b811461150e575f5ffd5b50565b5f8151905061151f816114fb565b92915050565b5f6020828403121561153a5761153961112f565b5b5f61154784828501611511565b91505092915050565b7f4e487b71000000000000000000000000000000000000000000000000000000005f52601160045260245ffd5b5f6115878261118d565b91506115928361118d565b92508282019050808211156115aa576115a9611550565b5b9291505056fea2646970667358221220a0e5b2b4dd49cab34057dcb2fd295a5fed5f28a3f06bf5c9a78ecd0a7869a42a64736f6c634300081c0033","linkReferences":{}},"methodIdentifiers":{"allowance(address,address)":"dd62ed3e","approve(address,uint256)":"095ea7b3","balanceOf(address)":"70a08231","decimals()":"313ce567","deposit(uint256)":"b6b55f25","depositFor(address,uint256)":"2f4f21e2","name()":"06fdde03","symbol()":"95d89b41","totalSupply()":"18160ddd","transfer(address,uint256)":"a9059cbb","transferFrom(address,address,uint256)":"23b872dd","underlying()":"6f307dc3","withdraw(uint256)":"2e1a7d4d","withdrawTo(address,uint256)":"205c2878"},"id":37}